{
  "_format": "hh-sol-artifact-1",
  "contractName": "doc",
  "sourceName": "contracts/Ncd.sol",
  "abi": [
    {
      "inputs": [
        {
          "internalType": "string",
          "name": "NCD_ID",
          "type": "string"
        },
        {
          "internalType": "string",
          "name": "DocType_ID",
          "type": "string"
        },
        {
          "internalType": "string",
          "name": "user_ID",
          "type": "string"
        },
        {
          "internalType": "string[]",
          "name": "data",
          "type": "string[]"
        },
        {
          "internalType": "string[][]",
          "name": "history",
          "type": "string[][]"
        }
      ],
      "name": "addDocs",
      "outputs": [],
      "stateMutability": "nonpayable",
      "type": "function"
    },
    {
      "inputs": [
        {
          "internalType": "string",
          "name": "_NCD_ID",
          "type": "string"
        },
        {
          "internalType": "string[]",
          "name": "_newHistoryArray",
          "type": "string[]"
        }
      ],
      "name": "addHistoryArray",
      "outputs": [],
      "stateMutability": "nonpayable",
      "type": "function"
    },
    {
      "inputs": [],
      "name": "getDocs",
      "outputs": [
        {
          "components": [
            {
              "internalType": "string",
              "name": "NCD_ID",
              "type": "string"
            },
            {
              "internalType": "string",
              "name": "DocType_ID",
              "type": "string"
            },
            {
              "internalType": "string",
              "name": "user_ID",
              "type": "string"
            },
            {
              "internalType": "string[]",
              "name": "data",
              "type": "string[]"
            },
            {
              "internalType": "string[][]",
              "name": "history",
              "type": "string[][]"
            }
          ],
          "internalType": "struct doc.Memo[]",
          "name": "",
          "type": "tuple[]"
        }
      ],
      "stateMutability": "view",
      "type": "function"
    }
  ],
  "bytecode": "0x608060405234801561001057600080fd5b506114cd806100206000396000f3fe608060405234801561001057600080fd5b50600436106100415760003560e01c8063352aebd2146100465780634e6cd58f14610064578063b5c340f514610080575b600080fd5b61004e61009c565b60405161005b9190610b6b565b60405180910390f35b61007e60048036038101906100799190610e9d565b6104aa565b005b61009a60048036038101906100959190610fa4565b610581565b005b60606000805480602002602001604051908101604052809291908181526020016000905b828210156104a157838290600052602060002090600502016040518060a00160405290816000820180546100f39061104b565b80601f016020809104026020016040519081016040528092919081815260200182805461011f9061104b565b801561016c5780601f106101415761010080835404028352916020019161016c565b820191906000526020600020905b81548152906001019060200180831161014f57829003601f168201915b505050505081526020016001820180546101859061104b565b80601f01602080910402602001604051908101604052809291908181526020018280546101b19061104b565b80156101fe5780601f106101d3576101008083540402835291602001916101fe565b820191906000526020600020905b8154815290600101906020018083116101e157829003601f168201915b505050505081526020016002820180546102179061104b565b80601f01602080910402602001604051908101604052809291908181526020018280546102439061104b565b80156102905780601f1061026557610100808354040283529160200191610290565b820191906000526020600020905b81548152906001019060200180831161027357829003601f168201915b5050505050815260200160038201805480602002602001604051908101604052809291908181526020016000905b8282101561036a5783829060005260206000200180546102dd9061104b565b80601f01602080910402602001604051908101604052809291908181526020018280546103099061104b565b80156103565780601f1061032b57610100808354040283529160200191610356565b820191906000526020600020905b81548152906001019060200180831161033957829003601f168201915b5050505050815260200190600101906102be565b50505050815260200160048201805480602002602001604051908101604052809291908181526020016000905b8282101561048a57838290600052602060002001805480602002602001604051908101604052809291908181526020016000905b828210156104775783829060005260206000200180546103ea9061104b565b80601f01602080910402602001604051908101604052809291908181526020018280546104169061104b565b80156104635780601f1061043857610100808354040283529160200191610463565b820191906000526020600020905b81548152906001019060200180831161044657829003601f168201915b5050505050815260200190600101906103cb565b5050505081526020019060010190610397565b5050505081525050815260200190600101906100c0565b50505050905090565b60006040518060a0016040528087815260200186815260200185815260200184815260200183815250908060018154018082558091505060019003906000526020600020906005020160009091909190915060008201518160000190816105119190611232565b5060208201518160010190816105279190611232565b50604082015181600201908161053d9190611232565b50606082015181600301908051906020019061055a929190610684565b5060808201518160040190805190602001906105779291906106dd565b5050505050505050565b60005b60008054905081101561067f57826040516020016105a29190611340565b60405160208183030381529060405280519060200120600082815481106105cc576105cb611357565b5b90600052602060002090600502016000016040516020016105ed9190611409565b604051602081830303815290604052805190602001200361066c576000818154811061061c5761061b611357565b5b906000526020600020906005020160040182908060018154018082558091505060019003906000526020600020016000909190919091509080519060200190610666929190610684565b5061067f565b80806106779061144f565b915050610584565b505050565b8280548282559060005260206000209081019282156106cc579160200282015b828111156106cb5782518290816106bb9190611232565b50916020019190600101906106a4565b5b5090506106d9919061073d565b5090565b82805482825590600052602060002090810192821561072c579160200282015b8281111561072b57825182908051906020019061071b929190610684565b50916020019190600101906106fd565b5b5090506107399190610761565b5090565b5b8082111561075d57600081816107549190610785565b5060010161073e565b5090565b5b80821115610781576000818161077891906107c5565b50600101610762565b5090565b5080546107919061104b565b6000825580601f106107a357506107c2565b601f0160209004906000526020600020908101906107c191906107e6565b5b50565b50805460008255906000526020600020908101906107e3919061073d565b50565b5b808211156107ff5760008160009055506001016107e7565b5090565b600081519050919050565b600082825260208201905092915050565b6000819050602082019050919050565b600081519050919050565b600082825260208201905092915050565b60005b8381101561086957808201518184015260208101905061084e565b60008484015250505050565b6000601f19601f8301169050919050565b60006108918261082f565b61089b818561083a565b93506108ab81856020860161084b565b6108b481610875565b840191505092915050565b600081519050919050565b600082825260208201905092915050565b6000819050602082019050919050565b60006108f78383610886565b905092915050565b6000602082019050919050565b6000610917826108bf565b61092181856108ca565b935083602082028501610933856108db565b8060005b8581101561096f578484038952815161095085826108eb565b945061095b836108ff565b925060208a01995050600181019050610937565b50829750879550505050505092915050565b600081519050919050565b600082825260208201905092915050565b6000819050602082019050919050565b60006109b9838361090c565b905092915050565b6000602082019050919050565b60006109d982610981565b6109e3818561098c565b9350836020820285016109f58561099d565b8060005b85811015610a315784840389528151610a1285826109ad565b9450610a1d836109c1565b925060208a019950506001810190506109f9565b50829750879550505050505092915050565b600060a0830160008301518482036000860152610a608282610886565b91505060208301518482036020860152610a7a8282610886565b91505060408301518482036040860152610a948282610886565b91505060608301518482036060860152610aae828261090c565b91505060808301518482036080860152610ac882826109ce565b9150508091505092915050565b6000610ae18383610a43565b905092915050565b6000602082019050919050565b6000610b0182610803565b610b0b818561080e565b935083602082028501610b1d8561081f565b8060005b85811015610b595784840389528151610b3a8582610ad5565b9450610b4583610ae9565b925060208a01995050600181019050610b21565b50829750879550505050505092915050565b60006020820190508181036000830152610b858184610af6565b905092915050565b6000604051905090565b600080fd5b600080fd5b600080fd5b600080fd5b7f4e487b7100000000000000000000000000000000000000000000000000000000600052604160045260246000fd5b610be382610875565b810181811067ffffffffffffffff82111715610c0257610c01610bab565b5b80604052505050565b6000610c15610b8d565b9050610c218282610bda565b919050565b600067ffffffffffffffff821115610c4157610c40610bab565b5b610c4a82610875565b9050602081019050919050565b82818337600083830152505050565b6000610c79610c7484610c26565b610c0b565b905082815260208101848484011115610c9557610c94610ba6565b5b610ca0848285610c57565b509392505050565b600082601f830112610cbd57610cbc610ba1565b5b8135610ccd848260208601610c66565b91505092915050565b600067ffffffffffffffff821115610cf157610cf0610bab565b5b602082029050602081019050919050565b600080fd5b6000610d1a610d1584610cd6565b610c0b565b90508083825260208201905060208402830185811115610d3d57610d3c610d02565b5b835b81811015610d8457803567ffffffffffffffff811115610d6257610d61610ba1565b5b808601610d6f8982610ca8565b85526020850194505050602081019050610d3f565b5050509392505050565b600082601f830112610da357610da2610ba1565b5b8135610db3848260208601610d07565b91505092915050565b600067ffffffffffffffff821115610dd757610dd6610bab565b5b602082029050602081019050919050565b6000610dfb610df684610dbc565b610c0b565b90508083825260208201905060208402830185811115610e1e57610e1d610d02565b5b835b81811015610e6557803567ffffffffffffffff811115610e4357610e42610ba1565b5b808601610e508982610d8e565b85526020850194505050602081019050610e20565b5050509392505050565b600082601f830112610e8457610e83610ba1565b5b8135610e94848260208601610de8565b91505092915050565b600080600080600060a08688031215610eb957610eb8610b97565b5b600086013567ffffffffffffffff811115610ed757610ed6610b9c565b5b610ee388828901610ca8565b955050602086013567ffffffffffffffff811115610f0457610f03610b9c565b5b610f1088828901610ca8565b945050604086013567ffffffffffffffff811115610f3157610f30610b9c565b5b610f3d88828901610ca8565b935050606086013567ffffffffffffffff811115610f5e57610f5d610b9c565b5b610f6a88828901610d8e565b925050608086013567ffffffffffffffff811115610f8b57610f8a610b9c565b5b610f9788828901610e6f565b9150509295509295909350565b60008060408385031215610fbb57610fba610b97565b5b600083013567ffffffffffffffff811115610fd957610fd8610b9c565b5b610fe585828601610ca8565b925050602083013567ffffffffffffffff81111561100657611005610b9c565b5b61101285828601610d8e565b9150509250929050565b7f4e487b7100000000000000000000000000000000000000000000000000000000600052602260045260246000fd5b6000600282049050600182168061106357607f821691505b6020821081036110765761107561101c565b5b50919050565b60008190508160005260206000209050919050565b60006020601f8301049050919050565b600082821b905092915050565b6000600883026110de7fffffffffffffffffffffffffffffffffffffffffffffffffffffffffffffffff826110a1565b6110e886836110a1565b95508019841693508086168417925050509392505050565b6000819050919050565b6000819050919050565b600061112f61112a61112584611100565b61110a565b611100565b9050919050565b6000819050919050565b61114983611114565b61115d61115582611136565b8484546110ae565b825550505050565b600090565b611172611165565b61117d818484611140565b505050565b5b818110156111a15761119660008261116a565b600181019050611183565b5050565b601f8211156111e6576111b78161107c565b6111c084611091565b810160208510156111cf578190505b6111e36111db85611091565b830182611182565b50505b505050565b600082821c905092915050565b6000611209600019846008026111eb565b1980831691505092915050565b600061122283836111f8565b9150826002028217905092915050565b61123b8261082f565b67ffffffffffffffff81111561125457611253610bab565b5b61125e825461104b565b6112698282856111a5565b600060209050601f83116001811461129c576000841561128a578287015190505b6112948582611216565b8655506112fc565b601f1984166112aa8661107c565b60005b828110156112d2578489015182556001820191506020850194506020810190506112ad565b868310156112ef57848901516112eb601f8916826111f8565b8355505b6001600288020188555050505b505050505050565b600081905092915050565b600061131a8261082f565b6113248185611304565b935061133481856020860161084b565b80840191505092915050565b600061134c828461130f565b915081905092915050565b7f4e487b7100000000000000000000000000000000000000000000000000000000600052603260045260246000fd5b600081546113938161104b565b61139d8186611304565b945060018216600081146113b857600181146113cd57611400565b60ff1983168652811515820286019350611400565b6113d68561107c565b60005b838110156113f8578154818901526001820191506020810190506113d9565b838801955050505b50505092915050565b60006114158284611386565b915081905092915050565b7f4e487b7100000000000000000000000000000000000000000000000000000000600052601160045260246000fd5b600061145a82611100565b91507fffffffffffffffffffffffffffffffffffffffffffffffffffffffffffffffff820361148c5761148b611420565b5b60018201905091905056fea26469706673582212204ff1cea17771acf892af2ce16b7b986fd393b1f322622271744098b431835d5b64736f6c63430008110033",
  "linkReferences": {},
  "deployedLinkReferences": {}
}